{
  "contractName": "AltheraAvatarNFT",
  "abi": [
    {
      "inputs": [],
      "stateMutability": "nonpayable",
      "type": "constructor"
    },
    {
      "anonymous": false,
      "inputs": [
        {
          "indexed": true,
          "internalType": "address",
          "name": "owner",
          "type": "address"
        },
        {
          "indexed": true,
          "internalType": "address",
          "name": "approved",
          "type": "address"
        },
        {
          "indexed": true,
          "internalType": "uint256",
          "name": "tokenId",
          "type": "uint256"
        }
      ],
      "name": "Approval",
      "type": "event"
    },
    {
      "anonymous": false,
      "inputs": [
        {
          "indexed": true,
          "internalType": "address",
          "name": "owner",
          "type": "address"
        },
        {
          "indexed": true,
          "internalType": "address",
          "name": "operator",
          "type": "address"
        },
        {
          "indexed": false,
          "internalType": "bool",
          "name": "approved",
          "type": "bool"
        }
      ],
      "name": "ApprovalForAll",
      "type": "event"
    },
    {
      "anonymous": false,
      "inputs": [
        {
          "indexed": true,
          "internalType": "address",
          "name": "from",
          "type": "address"
        },
        {
          "indexed": true,
          "internalType": "address",
          "name": "to",
          "type": "address"
        },
        {
          "indexed": true,
          "internalType": "uint256",
          "name": "tokenId",
          "type": "uint256"
        }
      ],
      "name": "Transfer",
      "type": "event"
    },
    {
      "inputs": [],
      "name": "SLOT_BELT",
      "outputs": [
        {
          "internalType": "uint8",
          "name": "",
          "type": "uint8"
        }
      ],
      "stateMutability": "view",
      "type": "function",
      "constant": true
    },
    {
      "inputs": [],
      "name": "SLOT_BRACERS",
      "outputs": [
        {
          "internalType": "uint8",
          "name": "",
          "type": "uint8"
        }
      ],
      "stateMutability": "view",
      "type": "function",
      "constant": true
    },
    {
      "inputs": [],
      "name": "SLOT_CHEST",
      "outputs": [
        {
          "internalType": "uint8",
          "name": "",
          "type": "uint8"
        }
      ],
      "stateMutability": "view",
      "type": "function",
      "constant": true
    },
    {
      "inputs": [],
      "name": "SLOT_HANDS",
      "outputs": [
        {
          "internalType": "uint8",
          "name": "",
          "type": "uint8"
        }
      ],
      "stateMutability": "view",
      "type": "function",
      "constant": true
    },
    {
      "inputs": [],
      "name": "SLOT_HEAD",
      "outputs": [
        {
          "internalType": "uint8",
          "name": "",
          "type": "uint8"
        }
      ],
      "stateMutability": "view",
      "type": "function",
      "constant": true
    },
    {
      "inputs": [],
      "name": "SLOT_LOWER_ARMOR",
      "outputs": [
        {
          "internalType": "uint8",
          "name": "",
          "type": "uint8"
        }
      ],
      "stateMutability": "view",
      "type": "function",
      "constant": true
    },
    {
      "inputs": [],
      "name": "SLOT_NECK",
      "outputs": [
        {
          "internalType": "uint8",
          "name": "",
          "type": "uint8"
        }
      ],
      "stateMutability": "view",
      "type": "function",
      "constant": true
    },
    {
      "inputs": [],
      "name": "SLOT_RING_1",
      "outputs": [
        {
          "internalType": "uint8",
          "name": "",
          "type": "uint8"
        }
      ],
      "stateMutability": "view",
      "type": "function",
      "constant": true
    },
    {
      "inputs": [],
      "name": "SLOT_RING_2",
      "outputs": [
        {
          "internalType": "uint8",
          "name": "",
          "type": "uint8"
        }
      ],
      "stateMutability": "view",
      "type": "function",
      "constant": true
    },
    {
      "inputs": [],
      "name": "SLOT_RING_3",
      "outputs": [
        {
          "internalType": "uint8",
          "name": "",
          "type": "uint8"
        }
      ],
      "stateMutability": "view",
      "type": "function",
      "constant": true
    },
    {
      "inputs": [],
      "name": "SLOT_RING_4",
      "outputs": [
        {
          "internalType": "uint8",
          "name": "",
          "type": "uint8"
        }
      ],
      "stateMutability": "view",
      "type": "function",
      "constant": true
    },
    {
      "inputs": [],
      "name": "SLOT_SHOES",
      "outputs": [
        {
          "internalType": "uint8",
          "name": "",
          "type": "uint8"
        }
      ],
      "stateMutability": "view",
      "type": "function",
      "constant": true
    },
    {
      "inputs": [],
      "name": "SLOT_SHOULDERS",
      "outputs": [
        {
          "internalType": "uint8",
          "name": "",
          "type": "uint8"
        }
      ],
      "stateMutability": "view",
      "type": "function",
      "constant": true
    },
    {
      "inputs": [],
      "name": "SLOT_WEAPON_1",
      "outputs": [
        {
          "internalType": "uint8",
          "name": "",
          "type": "uint8"
        }
      ],
      "stateMutability": "view",
      "type": "function",
      "constant": true
    },
    {
      "inputs": [],
      "name": "SLOT_WEAPON_2",
      "outputs": [
        {
          "internalType": "uint8",
          "name": "",
          "type": "uint8"
        }
      ],
      "stateMutability": "view",
      "type": "function",
      "constant": true
    },
    {
      "inputs": [
        {
          "internalType": "address",
          "name": "to",
          "type": "address"
        },
        {
          "internalType": "uint256",
          "name": "tokenId",
          "type": "uint256"
        }
      ],
      "name": "approve",
      "outputs": [],
      "stateMutability": "nonpayable",
      "type": "function"
    },
    {
      "inputs": [
        {
          "internalType": "address",
          "name": "owner",
          "type": "address"
        }
      ],
      "name": "balanceOf",
      "outputs": [
        {
          "internalType": "uint256",
          "name": "",
          "type": "uint256"
        }
      ],
      "stateMutability": "view",
      "type": "function",
      "constant": true
    },
    {
      "inputs": [
        {
          "internalType": "uint256",
          "name": "tokenId",
          "type": "uint256"
        }
      ],
      "name": "getApproved",
      "outputs": [
        {
          "internalType": "address",
          "name": "",
          "type": "address"
        }
      ],
      "stateMutability": "view",
      "type": "function",
      "constant": true
    },
    {
      "inputs": [
        {
          "internalType": "address",
          "name": "owner",
          "type": "address"
        },
        {
          "internalType": "address",
          "name": "operator",
          "type": "address"
        }
      ],
      "name": "isApprovedForAll",
      "outputs": [
        {
          "internalType": "bool",
          "name": "",
          "type": "bool"
        }
      ],
      "stateMutability": "view",
      "type": "function",
      "constant": true
    },
    {
      "inputs": [],
      "name": "name",
      "outputs": [
        {
          "internalType": "string",
          "name": "",
          "type": "string"
        }
      ],
      "stateMutability": "view",
      "type": "function",
      "constant": true
    },
    {
      "inputs": [
        {
          "internalType": "uint256",
          "name": "tokenId",
          "type": "uint256"
        }
      ],
      "name": "ownerOf",
      "outputs": [
        {
          "internalType": "address",
          "name": "",
          "type": "address"
        }
      ],
      "stateMutability": "view",
      "type": "function",
      "constant": true
    },
    {
      "inputs": [
        {
          "internalType": "address",
          "name": "from",
          "type": "address"
        },
        {
          "internalType": "address",
          "name": "to",
          "type": "address"
        },
        {
          "internalType": "uint256",
          "name": "tokenId",
          "type": "uint256"
        }
      ],
      "name": "safeTransferFrom",
      "outputs": [],
      "stateMutability": "nonpayable",
      "type": "function"
    },
    {
      "inputs": [
        {
          "internalType": "address",
          "name": "from",
          "type": "address"
        },
        {
          "internalType": "address",
          "name": "to",
          "type": "address"
        },
        {
          "internalType": "uint256",
          "name": "tokenId",
          "type": "uint256"
        },
        {
          "internalType": "bytes",
          "name": "data",
          "type": "bytes"
        }
      ],
      "name": "safeTransferFrom",
      "outputs": [],
      "stateMutability": "nonpayable",
      "type": "function"
    },
    {
      "inputs": [
        {
          "internalType": "address",
          "name": "operator",
          "type": "address"
        },
        {
          "internalType": "bool",
          "name": "approved",
          "type": "bool"
        }
      ],
      "name": "setApprovalForAll",
      "outputs": [],
      "stateMutability": "nonpayable",
      "type": "function"
    },
    {
      "inputs": [
        {
          "internalType": "bytes4",
          "name": "interfaceId",
          "type": "bytes4"
        }
      ],
      "name": "supportsInterface",
      "outputs": [
        {
          "internalType": "bool",
          "name": "",
          "type": "bool"
        }
      ],
      "stateMutability": "view",
      "type": "function",
      "constant": true
    },
    {
      "inputs": [],
      "name": "symbol",
      "outputs": [
        {
          "internalType": "string",
          "name": "",
          "type": "string"
        }
      ],
      "stateMutability": "view",
      "type": "function",
      "constant": true
    },
    {
      "inputs": [
        {
          "internalType": "uint256",
          "name": "tokenId",
          "type": "uint256"
        }
      ],
      "name": "tokenURI",
      "outputs": [
        {
          "internalType": "string",
          "name": "",
          "type": "string"
        }
      ],
      "stateMutability": "view",
      "type": "function",
      "constant": true
    },
    {
      "inputs": [
        {
          "internalType": "address",
          "name": "from",
          "type": "address"
        },
        {
          "internalType": "address",
          "name": "to",
          "type": "address"
        },
        {
          "internalType": "uint256",
          "name": "tokenId",
          "type": "uint256"
        }
      ],
      "name": "transferFrom",
      "outputs": [],
      "stateMutability": "nonpayable",
      "type": "function"
    },
    {
      "inputs": [
        {
          "internalType": "string",
          "name": "nickname",
          "type": "string"
        },
        {
          "internalType": "string",
          "name": "avatarFilename",
          "type": "string"
        }
      ],
      "name": "claim",
      "outputs": [
        {
          "internalType": "uint256",
          "name": "",
          "type": "uint256"
        }
      ],
      "stateMutability": "nonpayable",
      "type": "function"
    },
    {
      "inputs": [
        {
          "internalType": "uint256",
          "name": "tokenId",
          "type": "uint256"
        },
        {
          "internalType": "uint8",
          "name": "slot",
          "type": "uint8"
        },
        {
          "internalType": "uint256",
          "name": "itemId",
          "type": "uint256"
        }
      ],
      "name": "attachItem",
      "outputs": [],
      "stateMutability": "nonpayable",
      "type": "function"
    },
    {
      "inputs": [
        {
          "internalType": "address",
          "name": "owner",
          "type": "address"
        },
        {
          "internalType": "uint256",
          "name": "experience",
          "type": "uint256"
        }
      ],
      "name": "setExperience",
      "outputs": [],
      "stateMutability": "nonpayable",
      "type": "function"
    },
    {
      "inputs": [
        {
          "internalType": "address",
          "name": "owner",
          "type": "address"
        }
      ],
      "name": "getExperience",
      "outputs": [
        {
          "internalType": "uint256",
          "name": "",
          "type": "uint256"
        }
      ],
      "stateMutability": "view",
      "type": "function",
      "constant": true
    },
    {
      "inputs": [
        {
          "internalType": "uint256",
          "name": "tokenId",
          "type": "uint256"
        },
        {
          "internalType": "string",
          "name": "nickname",
          "type": "string"
        }
      ],
      "name": "setNickname",
      "outputs": [],
      "stateMutability": "nonpayable",
      "type": "function"
    },
    {
      "inputs": [
        {
          "internalType": "uint256",
          "name": "tokenId",
          "type": "uint256"
        }
      ],
      "name": "getNickname",
      "outputs": [
        {
          "internalType": "string",
          "name": "",
          "type": "string"
        }
      ],
      "stateMutability": "view",
      "type": "function",
      "constant": true
    },
    {
      "inputs": [
        {
          "internalType": "uint256",
          "name": "tokenId",
          "type": "uint256"
        }
      ],
      "name": "getAvatarFilename",
      "outputs": [
        {
          "internalType": "string",
          "name": "",
          "type": "string"
        }
      ],
      "stateMutability": "view",
      "type": "function",
      "constant": true
    }
  ],
  "bytecode": "0x60806040523480156200001157600080fd5b506040518060400160405280600d81526020017f416c7468657261417661746172000000000000000000000000000000000000008152506040518060400160405280600381526020017f414154000000000000000000000000000000000000000000000000000000000081525081600090805190602001906200009692919062000117565b508060019080519060200190620000af92919062000117565b5050506040518060400160405280600a81526020017f6261736541766174617200000000000000000000000000000000000000000000815250600a600080815260200190815260200160002090805190602001906200011092919062000117565b506200022b565b8280546200012590620001f6565b90600052602060002090601f01602090048101928262000149576000855562000195565b82601f106200016457805160ff191683800117855562000195565b8280016001018555821562000195579182015b828111156200019457825182559160200191906001019062000177565b5b509050620001a49190620001a8565b5090565b5b80821115620001c3576000816000905550600101620001a9565b5090565b7f4e487b7100000000000000000000000000000000000000000000000000000000600052602260045260246000fd5b600060028204905060018216806200020f57607f821691505b602082108103620002255762000224620001c7565b5b50919050565b613698806200023b6000396000f3fe608060405234801561001057600080fd5b50600436106102115760003560e01c80638347e48311610125578063c28d1b03116100ad578063dd0841541161007c578063dd0841541461061a578063e985e9c514610638578063e9d0c0ad14610668578063f685821f14610686578063fc6070da146106b657610211565b8063c28d1b0314610580578063c87b56dd1461059e578063cb6ab5d8146105ce578063d92af1b7146105fe57610211565b8063a5725c0b116100f4578063a5725c0b146104ee578063a73e9a461461050c578063ac32ff1e1461052a578063b88d4fde14610548578063bfb56d621461056457610211565b80638347e4831461047857806395d89b41146104965780639cce2c36146104b4578063a22cb465146104d257610211565b80634a87a1fb116101a85780636b743a2c116101775780636b743a2c146103c057806370a08231146103f0578063741c64611461042057806376a69c321461043c57806378f30aea1461045a57610211565b80634a87a1fb146103365780635d11fdf8146103545780636352211e14610372578063657d4fbb146103a257610211565b8063122c7f0f116101e4578063122c7f0f146102b057806323b872dd146102ce57806334c2b620146102ea57806342842e0e1461031a57610211565b806301ffc9a71461021657806306fdde0314610246578063081812fc14610264578063095ea7b314610294575b600080fd5b610230600480360381019061022b9190612252565b6106d4565b60405161023d919061229a565b60405180910390f35b61024e6107b6565b60405161025b919061234e565b60405180910390f35b61027e600480360381019061027991906123a6565b610848565b60405161028b9190612414565b60405180910390f35b6102ae60048036038101906102a9919061245b565b61088e565b005b6102b86109a5565b6040516102c591906124b7565b60405180910390f35b6102e860048036038101906102e391906124d2565b6109aa565b005b61030460048036038101906102ff91906123a6565b610a0a565b604051610311919061234e565b60405180910390f35b610334600480360381019061032f91906124d2565b610af2565b005b61033e610b12565b60405161034b91906124b7565b60405180910390f35b61035c610b17565b60405161036991906124b7565b60405180910390f35b61038c600480360381019061038791906123a6565b610b1c565b6040516103999190612414565b60405180910390f35b6103aa610ba2565b6040516103b791906124b7565b60405180910390f35b6103da60048036038101906103d59190612525565b610ba7565b6040516103e79190612561565b60405180910390f35b61040a60048036038101906104059190612525565b610bf0565b6040516104179190612561565b60405180910390f35b61043a600480360381019061043591906125a8565b610ca7565b005b610444610e50565b60405161045191906124b7565b60405180910390f35b610462610e55565b60405161046f91906124b7565b60405180910390f35b610480610e5a565b60405161048d91906124b7565b60405180910390f35b61049e610e5f565b6040516104ab919061234e565b60405180910390f35b6104bc610ef1565b6040516104c991906124b7565b60405180910390f35b6104ec60048036038101906104e79190612627565b610ef6565b005b6104f6610f0c565b60405161050391906124b7565b60405180910390f35b610514610f11565b60405161052191906124b7565b60405180910390f35b610532610f16565b60405161053f91906124b7565b60405180910390f35b610562600480360381019061055d919061279c565b610f1b565b005b61057e6004803603810190610579919061245b565b610f7d565b005b610588611002565b60405161059591906124b7565b60405180910390f35b6105b860048036038101906105b391906123a6565b611007565b6040516105c5919061234e565b60405180910390f35b6105e860048036038101906105e3919061287f565b61106f565b6040516105f59190612561565b60405180910390f35b61061860048036038101906106139190612900565b611102565b005b6106226111cb565b60405161062f91906124b7565b60405180910390f35b610652600480360381019061064d9190612960565b6111d0565b60405161065f919061229a565b60405180910390f35b610670611264565b60405161067d91906124b7565b60405180910390f35b6106a0600480360381019061069b91906123a6565b611269565b6040516106ad919061234e565b60405180910390f35b6106be611351565b6040516106cb91906124b7565b60405180910390f35b60007f80ac58cd000000000000000000000000000000000000000000000000000000007bffffffffffffffffffffffffffffffffffffffffffffffffffffffff1916827bffffffffffffffffffffffffffffffffffffffffffffffffffffffff1916148061079f57507f5b5e139f000000000000000000000000000000000000000000000000000000007bffffffffffffffffffffffffffffffffffffffffffffffffffffffff1916827bffffffffffffffffffffffffffffffffffffffffffffffffffffffff1916145b806107af57506107ae82611356565b5b9050919050565b6060600080546107c5906129cf565b80601f01602080910402602001604051908101604052809291908181526020018280546107f1906129cf565b801561083e5780601f106108135761010080835404028352916020019161083e565b820191906000526020600020905b81548152906001019060200180831161082157829003601f168201915b5050505050905090565b6000610853826113c0565b6004600083815260200190815260200160002060009054906101000a900473ffffffffffffffffffffffffffffffffffffffff169050919050565b600061089982610b1c565b90508073ffffffffffffffffffffffffffffffffffffffff168373ffffffffffffffffffffffffffffffffffffffff1603610909576040517f08c379a000000000000000000000000000000000000000000000000000000000815260040161090090612a72565b60405180910390fd5b8073ffffffffffffffffffffffffffffffffffffffff1661092861140b565b73ffffffffffffffffffffffffffffffffffffffff16148061095757506109568161095161140b565b6111d0565b5b610996576040517f08c379a000000000000000000000000000000000000000000000000000000000815260040161098d90612b04565b60405180910390fd5b6109a08383611413565b505050565b600481565b6109bb6109b561140b565b826114cc565b6109fa576040517f08c379a00000000000000000000000000000000000000000000000000000000081526004016109f190612b96565b60405180910390fd5b610a05838383611561565b505050565b606060008214610a4f576040517f08c379a0000000000000000000000000000000000000000000000000000000008152600401610a4690612c28565b60405180910390fd5b600960008381526020019081526020016000208054610a6d906129cf565b80601f0160208091040260200160405190810160405280929190818152602001828054610a99906129cf565b8015610ae65780601f10610abb57610100808354040283529160200191610ae6565b820191906000526020600020905b815481529060010190602001808311610ac957829003601f168201915b50505050509050919050565b610b0d83838360405180602001604052806000815250610f1b565b505050565b600881565b600b81565b600080610b288361185a565b9050600073ffffffffffffffffffffffffffffffffffffffff168173ffffffffffffffffffffffffffffffffffffffff1603610b99576040517f08c379a0000000000000000000000000000000000000000000000000000000008152600401610b9090612c94565b60405180910390fd5b80915050919050565b600a81565b6000600860008373ffffffffffffffffffffffffffffffffffffffff1673ffffffffffffffffffffffffffffffffffffffff168152602001908152602001600020549050919050565b60008073ffffffffffffffffffffffffffffffffffffffff168273ffffffffffffffffffffffffffffffffffffffff1603610c60576040517f08c379a0000000000000000000000000000000000000000000000000000000008152600401610c5790612d26565b60405180910390fd5b600360008373ffffffffffffffffffffffffffffffffffffffff1673ffffffffffffffffffffffffffffffffffffffff168152602001908152602001600020549050919050565b3373ffffffffffffffffffffffffffffffffffffffff16610cc784610b1c565b73ffffffffffffffffffffffffffffffffffffffff1614610d1d576040517f08c379a0000000000000000000000000000000000000000000000000000000008152600401610d1490612db8565b60405180910390fd5b610d2683611897565b610d65576040517f08c379a0000000000000000000000000000000000000000000000000000000008152600401610d5c90612e24565b60405180910390fd5b600e60ff168260ff161115610daf576040517f08c379a0000000000000000000000000000000000000000000000000000000008152600401610da690612e90565b60405180910390fd5b60006007600085815260200190815260200160002060008460ff1660ff1681526020019081526020016000205414610e1c576040517f08c379a0000000000000000000000000000000000000000000000000000000008152600401610e1390612efc565b60405180910390fd5b806007600085815260200190815260200160002060008460ff1660ff16815260200190815260200160002081905550505050565b600681565b600781565b600981565b606060018054610e6e906129cf565b80601f0160208091040260200160405190810160405280929190818152602001828054610e9a906129cf565b8015610ee75780601f10610ebc57610100808354040283529160200191610ee7565b820191906000526020600020905b815481529060010190602001808311610eca57829003601f168201915b5050505050905090565b600381565b610f08610f0161140b565b83836118d8565b5050565b600e81565b600181565b600c81565b610f2c610f2661140b565b836114cc565b610f6b576040517f08c379a0000000000000000000000000000000000000000000000000000000008152600401610f6290612b96565b60405180910390fd5b610f7784848484611a44565b50505050565b610f876000610b1c565b73ffffffffffffffffffffffffffffffffffffffff163373ffffffffffffffffffffffffffffffffffffffff1614610ff4576040517f08c379a0000000000000000000000000000000000000000000000000000000008152600401610feb90612f8e565b60405180910390fd5b610ffe8282611aa0565b5050565b600d81565b6060611012826113c0565b600061101c611ae8565b9050600081511161103c5760405180602001604052806000815250611067565b8061104684611aff565b604051602001611057929190612fea565b6040516020818303038152906040525b915050919050565b60008061107b33610bf0565b146110bb576040517f08c379a00000000000000000000000000000000000000000000000000000000081526004016110b290613080565b60405180910390fd5b60006110c681611897565b6110eb576110d43382611bcd565b6110df336000611aa0565b6110ea818585611dea565b5b6110f6818787611e12565b80915050949350505050565b60008314611145576040517f08c379a000000000000000000000000000000000000000000000000000000000815260040161113c90613112565b60405180910390fd5b3373ffffffffffffffffffffffffffffffffffffffff1661116584610b1c565b73ffffffffffffffffffffffffffffffffffffffff16146111bb576040517f08c379a00000000000000000000000000000000000000000000000000000000081526004016111b2906131a4565b60405180910390fd5b6111c6838383611e12565b505050565b600281565b6000600560008473ffffffffffffffffffffffffffffffffffffffff1673ffffffffffffffffffffffffffffffffffffffff16815260200190815260200160002060008373ffffffffffffffffffffffffffffffffffffffff1673ffffffffffffffffffffffffffffffffffffffff16815260200190815260200160002060009054906101000a900460ff16905092915050565b600081565b6060600082146112ae576040517f08c379a00000000000000000000000000000000000000000000000000000000081526004016112a590613236565b60405180910390fd5b600a600083815260200190815260200160002080546112cc906129cf565b80601f01602080910402602001604051908101604052809291908181526020018280546112f8906129cf565b80156113455780601f1061131a57610100808354040283529160200191611345565b820191906000526020600020905b81548152906001019060200180831161132857829003601f168201915b50505050509050919050565b600581565b60007f01ffc9a7000000000000000000000000000000000000000000000000000000007bffffffffffffffffffffffffffffffffffffffffffffffffffffffff1916827bffffffffffffffffffffffffffffffffffffffffffffffffffffffff1916149050919050565b6113c981611897565b611408576040517f08c379a00000000000000000000000000000000000000000000000000000000081526004016113ff90612c94565b60405180910390fd5b50565b600033905090565b816004600083815260200190815260200160002060006101000a81548173ffffffffffffffffffffffffffffffffffffffff021916908373ffffffffffffffffffffffffffffffffffffffff160217905550808273ffffffffffffffffffffffffffffffffffffffff1661148683610b1c565b73ffffffffffffffffffffffffffffffffffffffff167f8c5be1e5ebec7d5bd14f71427d1e84f3dd0314c0f7b2291e5b200ac8c7c3b92560405160405180910390a45050565b6000806114d883610b1c565b90508073ffffffffffffffffffffffffffffffffffffffff168473ffffffffffffffffffffffffffffffffffffffff16148061151a575061151981856111d0565b5b8061155857508373ffffffffffffffffffffffffffffffffffffffff1661154084610848565b73ffffffffffffffffffffffffffffffffffffffff16145b91505092915050565b8273ffffffffffffffffffffffffffffffffffffffff1661158182610b1c565b73ffffffffffffffffffffffffffffffffffffffff16146115d7576040517f08c379a00000000000000000000000000000000000000000000000000000000081526004016115ce906132c8565b60405180910390fd5b600073ffffffffffffffffffffffffffffffffffffffff168273ffffffffffffffffffffffffffffffffffffffff1603611646576040517f08c379a000000000000000000000000000000000000000000000000000000000815260040161163d9061335a565b60405180910390fd5b6116538383836001611e3a565b8273ffffffffffffffffffffffffffffffffffffffff1661167382610b1c565b73ffffffffffffffffffffffffffffffffffffffff16146116c9576040517f08c379a00000000000000000000000000000000000000000000000000000000081526004016116c0906132c8565b60405180910390fd5b6004600082815260200190815260200160002060006101000a81549073ffffffffffffffffffffffffffffffffffffffff02191690556001600360008573ffffffffffffffffffffffffffffffffffffffff1673ffffffffffffffffffffffffffffffffffffffff168152602001908152602001600020600082825403925050819055506001600360008473ffffffffffffffffffffffffffffffffffffffff1673ffffffffffffffffffffffffffffffffffffffff16815260200190815260200160002060008282540192505081905550816002600083815260200190815260200160002060006101000a81548173ffffffffffffffffffffffffffffffffffffffff021916908373ffffffffffffffffffffffffffffffffffffffff160217905550808273ffffffffffffffffffffffffffffffffffffffff168473ffffffffffffffffffffffffffffffffffffffff167fddf252ad1be2c89b69c2b068fc378daa952ba7f163c4a11628f55a4df523b3ef60405160405180910390a46118558383836001611e40565b505050565b60006002600083815260200190815260200160002060009054906101000a900473ffffffffffffffffffffffffffffffffffffffff169050919050565b60008073ffffffffffffffffffffffffffffffffffffffff166118b98361185a565b73ffffffffffffffffffffffffffffffffffffffff1614159050919050565b8173ffffffffffffffffffffffffffffffffffffffff168373ffffffffffffffffffffffffffffffffffffffff1603611946576040517f08c379a000000000000000000000000000000000000000000000000000000000815260040161193d906133c6565b60405180910390fd5b80600560008573ffffffffffffffffffffffffffffffffffffffff1673ffffffffffffffffffffffffffffffffffffffff16815260200190815260200160002060008473ffffffffffffffffffffffffffffffffffffffff1673ffffffffffffffffffffffffffffffffffffffff16815260200190815260200160002060006101000a81548160ff0219169083151502179055508173ffffffffffffffffffffffffffffffffffffffff168373ffffffffffffffffffffffffffffffffffffffff167f17307eab39ab6107e8899845ad3d59bd9653f200f220920489ca2b5937696c3183604051611a37919061229a565b60405180910390a3505050565b611a4f848484611561565b611a5b84848484611e46565b611a9a576040517f08c379a0000000000000000000000000000000000000000000000000000000008152600401611a9190613458565b60405180910390fd5b50505050565b80600860008473ffffffffffffffffffffffffffffffffffffffff1673ffffffffffffffffffffffffffffffffffffffff168152602001908152602001600020819055505050565b606060405180602001604052806000815250905090565b606060006001611b0e84611fcd565b01905060008167ffffffffffffffff811115611b2d57611b2c612671565b5b6040519080825280601f01601f191660200182016040528015611b5f5781602001600182028036833780820191505090505b509050600082602001820190505b600115611bc2578080600190039150507f3031323334353637383961626364656600000000000000000000000000000000600a86061a8153600a8581611bb657611bb5613478565b5b04945060008503611b6d575b819350505050919050565b600073ffffffffffffffffffffffffffffffffffffffff168273ffffffffffffffffffffffffffffffffffffffff1603611c3c576040517f08c379a0000000000000000000000000000000000000000000000000000000008152600401611c33906134f3565b60405180910390fd5b611c4581611897565b15611c85576040517f08c379a0000000000000000000000000000000000000000000000000000000008152600401611c7c9061355f565b60405180910390fd5b611c93600083836001611e3a565b611c9c81611897565b15611cdc576040517f08c379a0000000000000000000000000000000000000000000000000000000008152600401611cd39061355f565b60405180910390fd5b6001600360008473ffffffffffffffffffffffffffffffffffffffff1673ffffffffffffffffffffffffffffffffffffffff16815260200190815260200160002060008282540192505081905550816002600083815260200190815260200160002060006101000a81548173ffffffffffffffffffffffffffffffffffffffff021916908373ffffffffffffffffffffffffffffffffffffffff160217905550808273ffffffffffffffffffffffffffffffffffffffff16600073ffffffffffffffffffffffffffffffffffffffff167fddf252ad1be2c89b69c2b068fc378daa952ba7f163c4a11628f55a4df523b3ef60405160405180910390a4611de6600083836001611e40565b5050565b8181600a60008681526020019081526020016000209190611e0c929190612143565b50505050565b8181600960008681526020019081526020016000209190611e34929190612143565b50505050565b50505050565b50505050565b6000611e678473ffffffffffffffffffffffffffffffffffffffff16612120565b15611fc0578373ffffffffffffffffffffffffffffffffffffffff1663150b7a02611e9061140b565b8786866040518563ffffffff1660e01b8152600401611eb294939291906135d4565b6020604051808303816000875af1925050508015611eee57506040513d601f19601f82011682018060405250810190611eeb9190613635565b60015b611f70573d8060008114611f1e576040519150601f19603f3d011682016040523d82523d6000602084013e611f23565b606091505b506000815103611f68576040517f08c379a0000000000000000000000000000000000000000000000000000000008152600401611f5f90613458565b60405180910390fd5b805181602001fd5b63150b7a0260e01b7bffffffffffffffffffffffffffffffffffffffffffffffffffffffff1916817bffffffffffffffffffffffffffffffffffffffffffffffffffffffff191614915050611fc5565b600190505b949350505050565b600080600090507a184f03e93ff9f4daa797ed6e38ed64bf6a1f010000000000000000831061202b577a184f03e93ff9f4daa797ed6e38ed64bf6a1f010000000000000000838161202157612020613478565b5b0492506040810190505b6d04ee2d6d415b85acef81000000008310612068576d04ee2d6d415b85acef8100000000838161205e5761205d613478565b5b0492506020810190505b662386f26fc10000831061209757662386f26fc10000838161208d5761208c613478565b5b0492506010810190505b6305f5e10083106120c0576305f5e10083816120b6576120b5613478565b5b0492506008810190505b61271083106120e55761271083816120db576120da613478565b5b0492506004810190505b6064831061210857606483816120fe576120fd613478565b5b0492506002810190505b600a8310612117576001810190505b80915050919050565b6000808273ffffffffffffffffffffffffffffffffffffffff163b119050919050565b82805461214f906129cf565b90600052602060002090601f01602090048101928261217157600085556121b8565b82601f1061218a57803560ff19168380011785556121b8565b828001600101855582156121b8579182015b828111156121b757823582559160200191906001019061219c565b5b5090506121c591906121c9565b5090565b5b808211156121e25760008160009055506001016121ca565b5090565b6000604051905090565b600080fd5b600080fd5b60007fffffffff0000000000000000000000000000000000000000000000000000000082169050919050565b61222f816121fa565b811461223a57600080fd5b50565b60008135905061224c81612226565b92915050565b600060208284031215612268576122676121f0565b5b60006122768482850161223d565b91505092915050565b60008115159050919050565b6122948161227f565b82525050565b60006020820190506122af600083018461228b565b92915050565b600081519050919050565b600082825260208201905092915050565b60005b838110156122ef5780820151818401526020810190506122d4565b838111156122fe576000848401525b50505050565b6000601f19601f8301169050919050565b6000612320826122b5565b61232a81856122c0565b935061233a8185602086016122d1565b61234381612304565b840191505092915050565b600060208201905081810360008301526123688184612315565b905092915050565b6000819050919050565b61238381612370565b811461238e57600080fd5b50565b6000813590506123a08161237a565b92915050565b6000602082840312156123bc576123bb6121f0565b5b60006123ca84828501612391565b91505092915050565b600073ffffffffffffffffffffffffffffffffffffffff82169050919050565b60006123fe826123d3565b9050919050565b61240e816123f3565b82525050565b60006020820190506124296000830184612405565b92915050565b612438816123f3565b811461244357600080fd5b50565b6000813590506124558161242f565b92915050565b60008060408385031215612472576124716121f0565b5b600061248085828601612446565b925050602061249185828601612391565b9150509250929050565b600060ff82169050919050565b6124b18161249b565b82525050565b60006020820190506124cc60008301846124a8565b92915050565b6000806000606084860312156124eb576124ea6121f0565b5b60006124f986828701612446565b935050602061250a86828701612446565b925050604061251b86828701612391565b9150509250925092565b60006020828403121561253b5761253a6121f0565b5b600061254984828501612446565b91505092915050565b61255b81612370565b82525050565b60006020820190506125766000830184612552565b92915050565b6125858161249b565b811461259057600080fd5b50565b6000813590506125a28161257c565b92915050565b6000806000606084860312156125c1576125c06121f0565b5b60006125cf86828701612391565b93505060206125e086828701612593565b92505060406125f186828701612391565b9150509250925092565b6126048161227f565b811461260f57600080fd5b50565b600081359050612621816125fb565b92915050565b6000806040838503121561263e5761263d6121f0565b5b600061264c85828601612446565b925050602061265d85828601612612565b9150509250929050565b600080fd5b600080fd5b7f4e487b7100000000000000000000000000000000000000000000000000000000600052604160045260246000fd5b6126a982612304565b810181811067ffffffffffffffff821117156126c8576126c7612671565b5b80604052505050565b60006126db6121e6565b90506126e782826126a0565b919050565b600067ffffffffffffffff82111561270757612706612671565b5b61271082612304565b9050602081019050919050565b82818337600083830152505050565b600061273f61273a846126ec565b6126d1565b90508281526020810184848401111561275b5761275a61266c565b5b61276684828561271d565b509392505050565b600082601f83011261278357612782612667565b5b813561279384826020860161272c565b91505092915050565b600080600080608085870312156127b6576127b56121f0565b5b60006127c487828801612446565b94505060206127d587828801612446565b93505060406127e687828801612391565b925050606085013567ffffffffffffffff811115612807576128066121f5565b5b6128138782880161276e565b91505092959194509250565b600080fd5b600080fd5b60008083601f84011261283f5761283e612667565b5b8235905067ffffffffffffffff81111561285c5761285b61281f565b5b60208301915083600182028301111561287857612877612824565b5b9250929050565b60008060008060408587031215612899576128986121f0565b5b600085013567ffffffffffffffff8111156128b7576128b66121f5565b5b6128c387828801612829565b9450945050602085013567ffffffffffffffff8111156128e6576128e56121f5565b5b6128f287828801612829565b925092505092959194509250565b600080600060408486031215612919576129186121f0565b5b600061292786828701612391565b935050602084013567ffffffffffffffff811115612948576129476121f5565b5b61295486828701612829565b92509250509250925092565b60008060408385031215612977576129766121f0565b5b600061298585828601612446565b925050602061299685828601612446565b9150509250929050565b7f4e487b7100000000000000000000000000000000000000000000000000000000600052602260045260246000fd5b600060028204905060018216806129e757607f821691505b6020821081036129fa576129f96129a0565b5b50919050565b7f4552433732313a20617070726f76616c20746f2063757272656e74206f776e6560008201527f7200000000000000000000000000000000000000000000000000000000000000602082015250565b6000612a5c6021836122c0565b9150612a6782612a00565b604082019050919050565b60006020820190508181036000830152612a8b81612a4f565b9050919050565b7f4552433732313a20617070726f76652063616c6c6572206973206e6f7420746f60008201527f6b656e206f776e6572206f7220617070726f76656420666f7220616c6c000000602082015250565b6000612aee603d836122c0565b9150612af982612a92565b604082019050919050565b60006020820190508181036000830152612b1d81612ae1565b9050919050565b7f4552433732313a2063616c6c6572206973206e6f7420746f6b656e206f776e6560008201527f72206f7220617070726f76656400000000000000000000000000000000000000602082015250565b6000612b80602d836122c0565b9150612b8b82612b24565b604082019050919050565b60006020820190508181036000830152612baf81612b73565b9050919050565b7f43616e6e6f7420676574206e69636b6e616d6520666f72206e6f6e2d7a65726f60008201527f20746f6b656e2049440000000000000000000000000000000000000000000000602082015250565b6000612c126029836122c0565b9150612c1d82612bb6565b604082019050919050565b60006020820190508181036000830152612c4181612c05565b9050919050565b7f4552433732313a20696e76616c696420746f6b656e2049440000000000000000600082015250565b6000612c7e6018836122c0565b9150612c8982612c48565b602082019050919050565b60006020820190508181036000830152612cad81612c71565b9050919050565b7f4552433732313a2061646472657373207a65726f206973206e6f74206120766160008201527f6c6964206f776e65720000000000000000000000000000000000000000000000602082015250565b6000612d106029836122c0565b9150612d1b82612cb4565b604082019050919050565b60006020820190508181036000830152612d3f81612d03565b9050919050565b7f4f6e6c792074686520746f6b656e206f776e65722063616e206174746163682060008201527f616e206974656d00000000000000000000000000000000000000000000000000602082015250565b6000612da26027836122c0565b9150612dad82612d46565b604082019050919050565b60006020820190508181036000830152612dd181612d95565b9050919050565b7f4552433732313a20746f6b656e20646f6573206e6f7420657869737400000000600082015250565b6000612e0e601c836122c0565b9150612e1982612dd8565b602082019050919050565b60006020820190508181036000830152612e3d81612e01565b9050919050565b7f496e76616c696420736c6f740000000000000000000000000000000000000000600082015250565b6000612e7a600c836122c0565b9150612e8582612e44565b602082019050919050565b60006020820190508181036000830152612ea981612e6d565b9050919050565b7f536c6f7420616c7265616479206f636375706965640000000000000000000000600082015250565b6000612ee66015836122c0565b9150612ef182612eb0565b602082019050919050565b60006020820190508181036000830152612f1581612ed9565b9050919050565b7f4f6e6c792074686520636f6e7472616374206f776e65722063616e207365742060008201527f74686520657870657269656e6365000000000000000000000000000000000000602082015250565b6000612f78602e836122c0565b9150612f8382612f1c565b604082019050919050565b60006020820190508181036000830152612fa781612f6b565b9050919050565b600081905092915050565b6000612fc4826122b5565b612fce8185612fae565b9350612fde8185602086016122d1565b80840191505092915050565b6000612ff68285612fb9565b91506130028284612fb9565b91508190509392505050565b7f4f6e6c79206f6e6520416c74686572614176617461724e465420746f6b656e2060008201527f706572206f776e65720000000000000000000000000000000000000000000000602082015250565b600061306a6029836122c0565b91506130758261300e565b604082019050919050565b600060208201905081810360008301526130998161305d565b9050919050565b7f43616e6e6f7420736574206e69636b6e616d6520666f72206e6f6e2d7a65726f60008201527f20746f6b656e2049440000000000000000000000000000000000000000000000602082015250565b60006130fc6029836122c0565b9150613107826130a0565b604082019050919050565b6000602082019050818103600083015261312b816130ef565b9050919050565b7f4f6e6c792074686520746f6b656e206f776e65722063616e207365742074686560008201527f206e69636b6e616d650000000000000000000000000000000000000000000000602082015250565b600061318e6029836122c0565b915061319982613132565b604082019050919050565b600060208201905081810360008301526131bd81613181565b9050919050565b7f43616e6e6f7420676574206176617461722066696c656e616d6520666f72206e60008201527f6f6e2d7a65726f20746f6b656e20494400000000000000000000000000000000602082015250565b60006132206030836122c0565b915061322b826131c4565b604082019050919050565b6000602082019050818103600083015261324f81613213565b9050919050565b7f4552433732313a207472616e736665722066726f6d20696e636f72726563742060008201527f6f776e6572000000000000000000000000000000000000000000000000000000602082015250565b60006132b26025836122c0565b91506132bd82613256565b604082019050919050565b600060208201905081810360008301526132e1816132a5565b9050919050565b7f4552433732313a207472616e7366657220746f20746865207a65726f2061646460008201527f7265737300000000000000000000000000000000000000000000000000000000602082015250565b60006133446024836122c0565b915061334f826132e8565b604082019050919050565b6000602082019050818103600083015261337381613337565b9050919050565b7f4552433732313a20617070726f766520746f2063616c6c657200000000000000600082015250565b60006133b06019836122c0565b91506133bb8261337a565b602082019050919050565b600060208201905081810360008301526133df816133a3565b9050919050565b7f4552433732313a207472616e7366657220746f206e6f6e20455243373231526560008201527f63656976657220696d706c656d656e7465720000000000000000000000000000602082015250565b60006134426032836122c0565b915061344d826133e6565b604082019050919050565b6000602082019050818103600083015261347181613435565b9050919050565b7f4e487b7100000000000000000000000000000000000000000000000000000000600052601260045260246000fd5b7f4552433732313a206d696e7420746f20746865207a65726f2061646472657373600082015250565b60006134dd6020836122c0565b91506134e8826134a7565b602082019050919050565b6000602082019050818103600083015261350c816134d0565b9050919050565b7f4552433732313a20746f6b656e20616c7265616479206d696e74656400000000600082015250565b6000613549601c836122c0565b915061355482613513565b602082019050919050565b600060208201905081810360008301526135788161353c565b9050919050565b600081519050919050565b600082825260208201905092915050565b60006135a68261357f565b6135b0818561358a565b93506135c08185602086016122d1565b6135c981612304565b840191505092915050565b60006080820190506135e96000830187612405565b6135f66020830186612405565b6136036040830185612552565b8181036060830152613615818461359b565b905095945050505050565b60008151905061362f81612226565b92915050565b60006020828403121561364b5761364a6121f0565b5b600061365984828501613620565b9150509291505056fea2646970667358221220bd58c0a80e4c9029e072f44d6a861e5981bdc3a2f8b9efb952fac2078ab6823864736f6c634300080d0033",
  "immutableReferences": {},
  "source": "// SPDX-License-Identifier: MIT\r\npragma solidity ^0.8.0;\r\n\r\nimport \"@openzeppelin/contracts/token/ERC721/ERC721.sol\";\r\nimport \"@openzeppelin/contracts/utils/Counters.sol\";\r\n\r\ncontract AltheraAvatarNFT is ERC721 {\r\n    using Counters for Counters.Counter;\r\n\r\n    Counters.Counter private _tokenIds;\r\n\r\n    mapping(uint256 => mapping(uint8 => uint256)) private _tokenItems;\r\n\r\n    mapping(address => uint256) private _experience;\r\n\r\n    mapping(uint256 => string) private _nicknames;\r\n\r\n    mapping(uint256 => string) private _avatarFilenames;\r\n\r\n    uint8 public constant SLOT_HEAD = 0;\r\n    uint8 public constant SLOT_NECK = 1;\r\n    uint8 public constant SLOT_SHOULDERS = 2;\r\n    uint8 public constant SLOT_CHEST = 3;\r\n    uint8 public constant SLOT_BRACERS = 4;\r\n    uint8 public constant SLOT_HANDS = 5;\r\n    uint8 public constant SLOT_RING_1 = 6;\r\n    uint8 public constant SLOT_RING_2 = 7;\r\n    uint8 public constant SLOT_RING_3 = 8;\r\n    uint8 public constant SLOT_RING_4 = 9;\r\n    uint8 public constant SLOT_BELT = 10;\r\n    uint8 public constant SLOT_LOWER_ARMOR = 11;\r\n    uint8 public constant SLOT_SHOES = 12;\r\n    uint8 public constant SLOT_WEAPON_1 = 13;\r\n    uint8 public constant SLOT_WEAPON_2 = 14;\r\n\r\n    constructor() ERC721(\"AltheraAvatar\", \"AAT\") {\r\n        _avatarFilenames[0] = \"baseAvatar\";\r\n    }\r\n\r\n    function claim(\r\n        string calldata nickname,\r\n        string calldata avatarFilename\r\n    ) external returns (uint256) {\r\n        require(\r\n            balanceOf(msg.sender) == 0,\r\n            \"Only one AltheraAvatarNFT token per owner\"\r\n        );\r\n\r\n        uint256 tokenId = 0;\r\n\r\n        if (!_exists(tokenId)) {\r\n            _mint(msg.sender, tokenId);\r\n\r\n            _setExperience(msg.sender, 0);\r\n\r\n            _setAvatarFilename(tokenId, avatarFilename);\r\n        }\r\n\r\n        _setNickname(tokenId, nickname);\r\n\r\n        return tokenId;\r\n    }\r\n\r\n    function attachItem(uint256 tokenId, uint8 slot, uint256 itemId) external {\r\n        require(\r\n            ownerOf(tokenId) == msg.sender,\r\n            \"Only the token owner can attach an item\"\r\n        );\r\n        require(_exists(tokenId), \"ERC721: token does not exist\");\r\n        require(slot <= SLOT_WEAPON_2, \"Invalid slot\");\r\n        require(_tokenItems[tokenId][slot] == 0, \"Slot already occupied\");\r\n\r\n        _tokenItems[tokenId][slot] = itemId;\r\n    }\r\n\r\n    function setExperience(address owner, uint256 experience) external {\r\n        require(\r\n            msg.sender == ownerOf(0),\r\n            \"Only the contract owner can set the experience\"\r\n        );\r\n\r\n        _setExperience(owner, experience);\r\n    }\r\n\r\n    function _setExperience(address owner, uint256 experience) private {\r\n        _experience[owner] = experience;\r\n    }\r\n\r\n    function getExperience(address owner) external view returns (uint256) {\r\n        return _experience[owner];\r\n    }\r\n\r\n    function setNickname(uint256 tokenId, string calldata nickname) external {\r\n        require(tokenId == 0, \"Cannot set nickname for non-zero token ID\");\r\n        require(\r\n            ownerOf(tokenId) == msg.sender,\r\n            \"Only the token owner can set the nickname\"\r\n        );\r\n\r\n        _setNickname(tokenId, nickname);\r\n    }\r\n\r\n    function _setNickname(uint256 tokenId, string calldata nickname) private {\r\n        _nicknames[tokenId] = nickname;\r\n    }\r\n\r\n    function getNickname(\r\n        uint256 tokenId\r\n    ) external view returns (string memory) {\r\n        require(tokenId == 0, \"Cannot get nickname for non-zero token ID\");\r\n\r\n        return _nicknames[tokenId];\r\n    }\r\n\r\n    function _setAvatarFilename(\r\n        uint256 tokenId,\r\n        string calldata avatarFilename\r\n    ) private {\r\n        _avatarFilenames[tokenId] = avatarFilename;\r\n    }\r\n\r\n    function getAvatarFilename(\r\n        uint256 tokenId\r\n    ) external view returns (string memory) {\r\n        require(\r\n            tokenId == 0,\r\n            \"Cannot get avatar filename for non-zero token ID\"\r\n        );\r\n\r\n        return _avatarFilenames[tokenId];\r\n    }\r\n}\r\n",
  "sourcePath": "E:\\Work\\Exagon-Soft\\Althera Blockchain WorkSpace\\Althera-Avatar\\contracts\\AltheraAvatarNFT.sol",
  "compiler": {
    "name": "solc",
    "version": "0.8.13+commit.abaa5c0e.Emscripten.clang"
  },
  "schemaVersion": "3.4.14",
  "updatedAt": "2023-06-28T04:59:19.363Z",
  "networkType": "ethereum",
  "devdoc": {
    "kind": "dev",
    "methods": {
      "approve(address,uint256)": {
        "details": "See {IERC721-approve}."
      },
      "balanceOf(address)": {
        "details": "See {IERC721-balanceOf}."
      },
      "getApproved(uint256)": {
        "details": "See {IERC721-getApproved}."
      },
      "isApprovedForAll(address,address)": {
        "details": "See {IERC721-isApprovedForAll}."
      },
      "name()": {
        "details": "See {IERC721Metadata-name}."
      },
      "ownerOf(uint256)": {
        "details": "See {IERC721-ownerOf}."
      },
      "safeTransferFrom(address,address,uint256)": {
        "details": "See {IERC721-safeTransferFrom}."
      },
      "safeTransferFrom(address,address,uint256,bytes)": {
        "details": "See {IERC721-safeTransferFrom}."
      },
      "setApprovalForAll(address,bool)": {
        "details": "See {IERC721-setApprovalForAll}."
      },
      "supportsInterface(bytes4)": {
        "details": "See {IERC165-supportsInterface}."
      },
      "symbol()": {
        "details": "See {IERC721Metadata-symbol}."
      },
      "tokenURI(uint256)": {
        "details": "See {IERC721Metadata-tokenURI}."
      },
      "transferFrom(address,address,uint256)": {
        "details": "See {IERC721-transferFrom}."
      }
    },
    "version": 1
  },
  "userdoc": {
    "kind": "user",
    "methods": {},
    "version": 1
  }
}